:020000040000FA
:10000000C8020010750100007D0100007F010000A2
:1000100000000000000000000000000000000000E0
:10002000000000000000000000000000810100004E
:10003000000000000000000083010000650C0000CB
:100040008701000087010000870100008701000090
:100050008701000087010000870100008701000080
:100060008701000087010000870100008701000070
:100070008701000087010000870100008701000060
:100080008701000087010000150D000087010000B6
:100090008701000087010000870100008701000040
:1000A0008701000087010000870100008701000030
:1000B000510A00008701000087010000870100004D
:1000C00000F002F800F046F80CA030C808382418F8
:1000D0002D18A246671EAB4654465D46AC4201D180
:1000E00000F038F87E460F3E0FCCB646012633426C
:1000F00000D0FB1AA246AB4633431847100F00004E
:10010000300F0000103A02D378C878C1FAD85207ED
:1001100001D330C830C101D504680C6070470000BD
:100120000023002400250026103A01D378C1FBD813
:10013000520700D330C100D50B60704710B5642959
:1001400002D100F07BF810BD002010BD1FB51FBD0F
:1001500010B510BD00F0EDF91146FFF7F7FF00F004
:1001600013FF00F0C2F803B4FFF7F2FF03BC00F086
:1001700003FA00000748804707480047FEE7FEE70C
:10018000FEE7FEE7FEE7FEE704480549034A054BA4
:1001900070470000750C0000C1000000C80000108E
:1001A000C8020010C80000100FB41CB5074B06AA07
:1001B0007B4469460090059800F07FF8002069466E
:1001C00000F08EF81CBC08BC04B018472D010000DC
:1001D000F8B50E460446002020622046E1688847B4
:1001E000002829D0252802D06268A16820E0E168B3
:1001F00020460027884705001ED028464138192888
:1002000002D80127FF0220353246204627602946C2
:10021000FFF794FF002808D0012804D0F61DF60847
:10022000F6000836D9E7361DD7E762682846A16888
:100230009047206A401CCFE7206AF8BDF7B500253B
:1002400075291068009914A611D0C046C046002830
:1002500002DA404211A608E0009909688A0701D530
:100260000FA602E0490704D50EA6012501E0C0460D
:10027000C046009F0024243704E000F046F93031E6
:100280003955641C0028F8D12B4632462146009887
:1002900000F0E3F8FEBD0000000000002D000000AB
:1002A0002B000000200000007047704770470000DE
:1002B00001694A1C02610878704700B58FB002914D
:1002C0000021059105490193794403911146049059
:1002D0006846FFF77DFF0FB000BD0000E5FFFFFFA0
:1002E0000A681070521C0A60704710B50446C04678
:1002F000C0462046FFF737FF10BD7047FFFFFFFFE6
:10030000002203098B422CD3030A8B4211D3002312
:100310009C464EE003460B433CD4002243088B42EC
:1003200031D303098B421CD3030A8B4201D3944679
:100330003FE0C3098B4201D3CB01C01A524183096C
:100340008B4201D38B01C01A524143098B4201D326
:100350004B01C01A524103098B4201D30B01C01A51
:100360005241C3088B4201D3CB00C01A52418308CB
:100370008B4201D38B00C01A524143088B4201D3F8
:100380004B00C01A5241411A00D201465241104658
:1003900070475DE0CA0F00D04942031000D34042CD
:1003A000534000229C4603098B422DD3030A8B4203
:1003B00012D3FC22890112BA030A8B420CD38901A1
:1003C00092118B4208D3890192118B4204D3890187
:1003D0003AD0921100E08909C3098B4201D3CB01C5
:1003E000C01A524183098B4201D38B01C01A52417A
:1003F00043098B4201D34B01C01A524103098B427E
:1004000001D30B01C01A5241C3088B4201D3CB0068
:10041000C01A524183088B4201D38B00C01A52414B
:10042000D9D243088B4201D34B00C01A5241411A22
:1004300000D20146634652415B10104601D3404250
:10044000002B00D54942704763465B1000D3404201
:1004500001B50020C046C04602BDFFB504460D46AA
:1004600081B0243000902168880604D51022E0690C
:100470009143216000E00120A84201DD471B00E01C
:1004800000270498A1697A191018081AA061207829
:10049000C00602D42046C046C046002608E00398A5
:1004A0006268A168805D9047206A401C761C2062CB
:1004B00004988642F3DB2078C0060AD52046C04661
:1004C000C04606E06268A16830209047206A401C60
:1004D000206238467F1E0028F4DC07E0009862683E
:1004E000A168405D9047206A401C206228466D1E2E
:1004F0000028F3DC2046C046C0462078000602D51E
:10050000022005B0F0BD0120FBE701468008081A73
:1005100002091018020A1018020C1018C0088200F4
:1005200012185200891A01E0401C0A390A29FBD22C
:100530007047754600F01CF8AE4605006946534604
:10054000C008C000854618B020B5FFF71DFE60BC8E
:1005500000274908B6460026C0C5C0C5C0C5C0C5ED
:10056000C0C5C0C5C0C5C0C5403D49008D46704727
:10057000004870476800001001491820ABBEFEE734
:100580002600020010B5164800680121090408433E
:100590001349086013488069BF2188431149886165
:1005A00008468069012108430E4988610E48806B26
:1005B000102188430C4988630948006801214903D8
:1005C000084307490860094909480068FFF798FE91
:1005D000401E0002802108430649086010BD00004B
:1005E00080800440804004400082044040420F006C
:1005F0005000001000C0014070B50546064A126860
:10060000064B991A044A1268054B5A431046FFF7E5
:1006100077FE0446204670BD08000010E40C000080
:100620001027000010B504460E480078844217D306
:10063000FF20F53000F066F80B48C06B02218843BC
:100640000949C863FF20F53000F05CF80648C06B2C
:10065000022108430449C863FF20F53000F052F836
:1006600010BD00004C000010C03F00501148006851
:100670000121090408430F4908600F480069C008B8
:10068000C0000D4908610846006908610948006812
:1006900001210904884307490860084800680221CD
:1006A0000843064908600648C06B02210843044914
:1006B000C8637047808004400040044000800050C0
:1006C000C03F00500C490969042291430A4A116154
:1006D0000A494143491E5161002191610321116181
:1006E00000BF074909680029FBD00021044A1160B6
:1006F000014A11617047000000E000E0A8610000BD
:100700000C0000100C490969042291430A4A116146
:1007100019214143491E5161002191610321116159
:1007200000BF064909680029FBD00021034A116077
:10073000014A11617047000000E000E00C00001069
:1007400070B504467D21C9002046FFF7D9FD0E464D
:1007500064213046FFF7D4FD0D460A212846FFF7F5
:10076000CFFD002815D07D21C9002046FFF7C8FD28
:100770000E4664213046FFF7C3FD0D460A21284688
:10078000FFF7BEFD80001449085814490840144979
:10079000C8630220FFF796FF12481149C8637D2104
:1007A000C9002046FFF7ACFD0E4664213046FFF736
:1007B000A7FD0D460A212846FFF7A2FD880006493D
:1007C000085A4005400D0649C8630220FFF77AFF2A
:1007D00004480349C86370BD14000010FF0B0000FB
:1007E000C03F0250FF0F000006480068064908435A
:1007F000044908600548C06B034908430349C863BE
:100800007047000000800250FF0F0000C03F025000
:1008100010B550484068C008C0004E4948604E4876
:100820000068400840004C4908604A488068C00899
:10083000C00048498860484800680221884346490A
:1008400008604448C069C008C0004249C8614248C5
:10085000006804218843404908603E48C06AC008D7
:10086000C0003C49C8623C480068082188433A49B6
:10087000086038488038C06BC008C00035498039EE
:10088000C86335480068102188433349086008462A
:1008900000690121084330490861084600690221C6
:1008A00008432D49086108460069042108432A4984
:1008B000086108460069082108432749086108467D
:1008C000006910210843244908610846406840082F
:1008D0004000486008464068022188431E4948603D
:1008E00008464068042188431B4948600846406820
:1008F0000821884318494860084640681021884309
:10090000154948600846C06840084000C86008466D
:10091000C068022188431049C8600846C0680421A5
:1009200088430D49C8600846C068082188430A49C1
:10093000C8600846C068102188430749C8601C2069
:1009400001218140054A116000BF012100F044F8F7
:1009500010BD0000804004400080035000E100E032
:1009600010B5002819DA1A4A03071B0F083B9B0829
:100970009B00D2588307DC0EFF23A3409A438B07CA
:100980001B0E8407E40EA3401A43114B0407240FE7
:10099000083CA408A4001A5118E00E4A03231B02C5
:1009A000D21883089B00D2588307DC0EFF23A34094
:1009B0009A438B071B0E8407E40EA3401A43054B92
:1009C000032424021B198408A4001A5110BD00003E
:1009D0001CED00E000E100E010B5002819DA1A4A29
:1009E00003071B0F083B9B089B00D2588307DC0EB4
:1009F000FF23A3409A438B071B0E8407E40EA340FA
:100A00001A43114B0407240F083CA408A4001A51F0
:100A100018E00E4A03231B02D21883089B00D25809
:100A20008307DC0EFF23A3409A438B071B0E84072A
:100A3000E40EA3401A43054B032424021B19840827
:100A4000A4001A5110BD00001CED00E000E100E020
:100A500024488069C007C00F002807D022480078CA
:100A6000401C21490870FF201E49C8611D4880694B
:100A700002210840022805D101201C490870FF20EE
:100A80001849C8611748806904210840042805D125
:100A900000201649087004201249C8611148806975
:100AA00008210840082807D10F480078401E0E4949
:100AB000087008200B49C8610A4880691021084065
:100AC00010280ED10A4801780078401C40B2084A2C
:100AD0001070002902D00020114608701020014932
:100AE000C8617047008003504C0000104D0000109A
:100AF0004E00001070B5044600264B4884420BD2CD
:100B00004A48844208D94A4D4749491E081B29468C
:100B1000FFF7F6FB064684E04448401C84420CD2B2
:100B20004448844209D9A125AD004049081B294603
:100B3000FFF7E6FB06460A3673E03E48401C844257
:100B40000CD23D48844209D9FF2593353949081B09
:100B50002946FFF7D5FB0646143662E03648401CAE
:100B600084420CD23548844209D9FF2502353249E6
:100B7000081B2946FFF7C4FB06461E3651E02F48E6
:100B8000401C84420BD22E48844208D9A9252B4907
:100B9000081B2946FFF7B4FB0646283641E02948E2
:100BA00084420DD22048401E844209D9264D254951
:100BB000491E081B2946FFF7A3FB06460A3E30E004
:100BC000224884420DD21F48401E844209D9204D3C
:100BD0001E49491E081B2946FFF792FB0646143E94
:100BE0001FE01C4884420DD21848401E844209D997
:100BF000194D1849491E081B2946FFF781FB064677
:100C00001E3E0EE0154884420BD21248401E84421C
:100C100007D9134D1149081B2946FFF771FB0646FA
:100C2000283E304670BD0000BB720000F84800004E
:100C30002D040000D02F00001D2000001016000021
:100C4000760F000073BA00002C070000E93901009C
:100C5000BF0C0000E12202004C17000000CF03008F
:100C6000D02A000002480068401C01490860704713
:100C70000C00001008B52548806B202188432349CB
:100C80008863002022490862009003E000BF0098BA
:100C9000401C00900098C828F8D301201C4940311E
:100CA00008604860002048600120486000BF184884
:100CB00040304068C007C00F0028F8D023201449F6
:100CC00088601248806B802188431049886300BF88
:100CD0000F48C068C007C00F0028F9D003200C4996
:100CE00040310863012048630020486301204863C5
:100CF00000BF07484030406BC007C00F0028F8D045
:100D0000012003494031886308BD0000008204408F
:100D10000080044010B50120224908602248C06AC2
:100D200022490860084600880004800D0860012000
:100D30001F49086008460068012831D1002008607A
:100D40001A4800681B490860084600681A49484369
:100D5000800A1849086008460068FFF74DFC1749EB
:100D6000086008460068FFF7C5FE15490860084698
:100D7000006800F033F813490860114812A10268B6
:100D80001548FFF711FA144800F0BAF80020094995
:100D90000860054800680121090608430249086007
:100DA00010BD00000040014000C0014000000010E4
:100DB0000400001008000010E40C00003C000010CB
:100DC000400000104400001077656E6475203D20DF
:100DD000256420A1E60D0A005400001070B50446F9
:100DE0001221614308460A21FFF78AFA0546203599
:100DF000284670BD10B50E4800680121490208431D
:100E00000B49086001200B4908600020C8600320DE
:100E1000486109480068886101204860122001216A
:100E20008140064A116000BF0021FFF799FD10BD07
:100E300080800440004001405000001000E100E0CC
:100E400070B525480068012109040843224908605B
:100E50002248406AC008C000204948620846406AEB
:100E6000012108431D4948620846806AC008C00045
:100E700088620846806A012108431849886216483A
:100E800000680121090308431349086001208861B3
:100E900083201349C8601048816912480068FFF731
:100EA0002FFA05094B21C9012846FFF729FA84B218
:100EB0002046E117090E09180912094A5160E11785
:100EC000090E091809120902611A1160032011465E
:100ED000C8600720886070BD808004408040044066
:100EE00000800040500000100449086000BF034922
:100EF0004969402211400029F9D070470080004024
:100F000000B5034607E01878002800D104E01878FF
:100F10005B1CFFF7E9FFF6E700BF00BD10B5044614
:100F20000A212046FFF7ECF900280AD00A212046C2
:100F3000FFF7E6F980000F4908580F4908400F49AC
:100F4000C8630220FFF7BEFB0D480C49C8630A21A5
:100F50002046FFF7D5F98800064908580949084096
:100F60000649C8630220FFF7ADFB05480349C86383
:100F700010BD000014000010FF0E0000C03F025022
:100F8000FF0F0000FF0D000000BFFFF72DFCFFF773
:100F900057FFFFF76BFBFFF7F5FAFFF72BFFFFF7A4
:100FA00037FC002012490860124800680121090638
:100FB00008431049086019E00F48007800280DD157
:100FC0000E480078002804D10D480068FFF7B8FBF0
:100FD00008E00C480068FFF7B3FB03E00A4800781C
:100FE000FFF79CFF06480068FFF71CFBE4E70000E2
:100FF0000400001000C001404E0000104D00001021
:1010000040000010440000104C0000102C100000A4
:1010100000000010540000000401000080100000D7
:1010200054000010740200002001000000000000C5
:1010300000000000000000000000000000000000B0
:10104000C00F0000F90F0000A40F0000B00F000057
:10105000990F0000920F0000820F0000F80F0000AF
:10106000800F0000900F0000000000000000000052
:1010700000000000000000001B000000006CDC020B
:04000005000000C136
:00000001FF
